:020000040800F2
:10000000B1AA010000000000000000000000000094
:10001000000000000000000000000000E20D0008E9
:1000200000000000000000000000000000000000D0
:1000300000000000000000000000000000000000C0
:1000400000000000000000000000000000000000B0
:1000500000000000000000000000000000000000A0
:100060000000000000000000000000000000000090
:100070000000000000000000000000000000000080
:100080000000000000000000000000000000000070
:100090000000000000000000000000000000000060
:1000A0000000000000000000000000000000000050
:1000B0000000000000000000000000000000000040
:1000C0000000000000000000000000000000000030
:1000D0000000000000000000000000000000000020
:1000E000340E0008000000000000000000000000C6
:1000F0000000000000000000000000000000000000
:1001000000000000000000000000000000000000EF
:1001100000000000000000000000000000000000DF
:1001200000000000000000000000000000000000CF
:1001300000000000000000000000000000000000BF
:1001400000000000000000000000000000000000AF
:100150000000000000000000000000007370043088
:10016000170500001305C5FF8545F605637BB5003F
:1001700089816378B500170500001305C5002E9529
:1001800002859302002073A0027D970200009382F3
:1001900062E773907230971200009382E2DA7390F4
:1001A000C27E73E0C07E971200009382A2D173904A
:1001B0005230970100189381E16C178100181301E8
:1001C00061E4171500001305656197050018938514
:1001D00065E317060018130666EB63FAC500832271
:1001E000050023A0550011059105E3EAC5FE17059A
:1001F00000181305A5E9970500189385A5F3637703
:10020000B500232005001105E36DB5FE73F0023241
:10021000171500001305450E97100000E7806009D0
:1002200097100000E780C01097100000E780C0A47E
:100230000145814597000000E78000081713000082
:100240006700230801A073E00232828073F002325B
:0402500082800000A8
:100280000A50726F6772616D2068617320657869CA
:10029000746564207769746820636F64653A000050
:1002A000307800006E6D690A0000000074726170A1
:1002B0000A00000005711305A002232E111C232C37
:1002C000811C2328211D2326311D2324411D232287
:1002D000511D2320611D232E711B232C811B232ADA
:1002E000911B2328A11B2326B11B232A911C9710A5
:1002F0000000E780401D97100000E78020D3971092
:100300000000E780C0D697100000E780C0DD97109E
:100310000000E78040E6054597100000E780A098C0
:10032000056C3724014093077CBB814C0149814B0C
:10033000014D814D014B130A401F814A8549130429
:1003400004403EC263983C0597100000E78020D12E
:1003500075D9DA85054597100000E78040DF935591
:100360000B41014597100000E78060DE9710000008
:10037000E780E0D397100000E78000DA8144214C49
:1003800026858145850497100000E78040DCE399CD
:1003900084FF4DBF8945228597000000E780604FAC
:1003A000631C35039145228597000000E780604E6D
:1003B0006313350D8145228597000000E780A04A30
:1003C0008945228597000000E780404D91452285B0
:1003D00097000000E780804C014C9944631F890B13
:1003E00097100000E780A0C731DD97100000E7807C
:1003F00000CC97100000E78020D2814426858145FB
:1004000097100000E780A0D48504A147E398F4FE8C
:1004100093171A00634CFD0297100000E780C0108C
:1004200095473365950263CE270B01468545339585
:10043000A90097100000E78040A593172900181322
:10044000BA9723A8A7E60509014D814D050D850B37
:100450008144631D990A924763D877019307A004EA
:10046000814B63D34701311A8545228597000000EF
:10047000E780E03CC1BD228597000000E780203E78
:100480002585930A0008B3DAAA40D6851945971046
:100490000000E780C0CB89451DBF1C0813172C0046
:1004A0003E9718430C4308473AC42EC697100000E5
:1004B000E78020CB2247B2451443C98D0847639497
:1004C0005601630E950063D6A40063940D00050BDE
:1004D000854D97100000E78080C7050C01B7854C5B
:1004E000EDBF3395A900140801471D469C428C4777
:1004F0006359B60023A6070023A2370188C323A4AB
:10050000070005079106E313E9FE3DBF180893971E
:100510002400BA979C43D8470507D8C7634B4701C7
:100520003E853EC497100000E780E098A24723A6CE
:100530000700850439BF4111B727014006C69387DC
:100540000740630BF500B7370140938707806303CB
:10055000F502B240410182801305903097000000FF
:10056000E780404013059030B2404101170300007E
:100570006700C3401305A03097000000E780803E6D
:100580001305A030D5B7B727014003A74740B706EA
:10059000F1FFFD16758F23A2E74003A74740598D51
:1005A00023A2A740828093F7051013F7054089899D
:1005B0000DC289C75C4193E707105CC109C75C4164
:1005C00093E707405CC189C51C4593E727001CC51C
:1005D000828089C75C4193F7F7EF5CC109C75C4132
:1005E00093F7F7BF5CC1EDD51C45F59BCDB71C4516
:1005F00099C5056713070780D98F1CC582807D7751
:100600001307F77FF98FD5BF1C45858B89E71C45FC
:1006100093E717001CC582801C451307850093E7EC
:1006200087001CC51C43A18BF5FF1C4593E74700C1
:100630001CC51C43918BF5FF82803727014083271F
:100640008740B7068000D58F2324F74082808547F6
:100650006386F50089476382F50282805C5537071F
:1006600010FF7D17F98F5CD55C557D165206370754
:10067000F000798E5D8E50D582801C5D3707D0FFEB
:100680007D17F98F1CDD1C5D7D1652063707300083
:10069000798E5D8E10DD828015476363B704B38564
:1006A000E50203284503FD47B397B70093C7F7FF5B
:1006B000B3F70701B315B600DD8D4CD9A54763E943
:1006C000C7068D473306F6020C491D473317C7008E
:1006D0001347F7FF6D8F3396C600598E10C982807D
:1006E000AD4763E3B702E915B385E50203280503C7
:1006F000FD47B397B70093C7F7FFB3F70701B315EB
:10070000B600DD8D0CD95DBFBD47E3E9B7FAD11561
:10071000B385E5020328C502FD47B397B70093C729
:10072000F7FFB3F70701B315B600DD8D4CD579B7E8
:10073000C54763E1C7028D4759163306F60258458F
:100740009D47B397C70093C7F7FFF98F3396C6004D
:10075000D18F5CC582801C5D7D4703288503D183D2
:100760008D8BB385B740ED57B385F502A547BD0521
:100770003317B7001347F7FF33770701B315B600F8
:10078000D98D0CDD63E1C7020D473306E6021C4933
:100790001D473317C7001347F7FF7D8F3396C600F9
:1007A000598E10C98280C54763E1C7028D4759162B
:1007B0003306F60258459D47B397C70093C7F7FF26
:1007C000F98F3396C600D18F5CC5828085476386DA
:1007D000F5008947638DF50082801445B705F2FF67
:1007E000FD15ED8E14C51845518F18C5828018452A
:1007F000E576FD16758F18C51C45D18F1CC5828006
:1008000093F71500898909CE91C71C453707100059
:10081000D98F1CC589C51C452167D98F1CC582800D
:1008200099C71C453707F0FF7D17F98F1CC5E5D91F
:100830001C4561777D17F98FD5B793F7150091C7E0
:100840001C4537074000D98F1CC5898991C51C45B7
:1008500037072000D98F1CC5828068454205418139
:1008600082808547638FF50099C98947638DF500BC
:100870008D47638CF5000145420541818280485DCA
:10088000E5BF2841D5BF6841C5BF2845F5B7084138
:100890006D8D3335A00082801C4193C5F5FFFD8D21
:1008A0000CC1828093F7050193F8F50099C3B3E872
:1008B000C8008147054EBD4E130F8002930F800480
:1008C00021433316FE00758E1DC213972700832225
:1008D00005003398EE001348F8FF3378580033973B
:1008E000E800336707016399E50550C918C185071A
:1008F000E39967FC054EBD4E130F8002930F8004F1
:1009000041433316FE00758E05C613972700011765
:10091000832245003398EE001348F8FF33785800DF
:100920003397E80033670701639CE50150C958C15C
:100930008507E39867FC8280E39AF5FB10C97DB7D1
:10094000E397F5FF10C9E5B7B717024013576500E5
:100950003E9714438547B397A700D58F1CC3828069
:10096000B7170240135765003E9714438547B39766
:10097000A700D58F1CC38280B717024013576500AC
:100980003E9714438547B397A70093C7F7FFF58FAA
:100990001CC38280B7170240DC433747FFEF7D1747
:1009A000F98F1547630EE5006369A7000D47637073
:1009B000A702371702405CC382801D47E31BE5FE98
:1009C0003A053177798D5D8DB707001011A03A0592
:1009D000C98FC5B7B71702409843B706FFE0B10605
:1009E0001367170098C3D843758FD8C39843B706C9
:1009F000F7FEFD16758F98C39843B706FCFFFD16EA
:100A0000758F98C3D843B70601DFFD16758FD8C31D
:100A100023A607029843B706F7EAFD16758F98C319
:100A20003707FF0098C794434167D98E94C3930753
:100A3000F7FF3717024014431396E600634406009D
:100A4000FD17F5FBB717024098439316E70063C301
:100A5000060001A0D843B706C4DFFD16D8C3D843AB
:100A6000D8C3D84313670740D8C3D843758FD8C3BA
:100A7000D843B7062920558FD8C3D857BD76758F70
:100A8000D8D7D857C166938616F1558FD8D79843D3
:100A9000B7060004558F98C3B717024098439316C2
:100AA0004700E3DD06FE9843B7060010558F98C354
:100AB000B7170240984393162700E3DD06FE9843DC
:100AC000B7060001558F98C3B71702409843931695
:100AD0006700E3DD06FED843719BD8C3D843136794
:100AE0002700D8C3371702405C43A18BF5DF828013
:100AF0007971B705000822D47D462A84938505289C
:100B00000A8506D697100000E780608A79468A85B4
:100B1000094597100000E78080ADA2850945970040
:100B20000000E780C004B705000805469385052B43
:100B3000094597100000E78080AB01A0370700202F
:100B4000130707081C43B7060020938606133E953B
:100B5000636BD500B77600209386060063E5A60098
:100B600008C33E858280FD57EDBF79714ECEAE89B8
:100B7000B705000809469385052A22D426D24AD013
:100B800052CC56CA06D62A89714497100000E780D5
:100B900000A63D4AA54AF154B3178A00B3F73701BE
:100BA000B3D7870093F7F70F63ECFA029387070335
:100BB00093F7F70F05469305F1004A857114A307D3
:100BC000F10097100000E78080A2E31794FCB25078
:100BD000225492540259F249624AD24A45618280B3
:100BE00093877703F1B7B70700D223800700A38567
:100BF00007001205B71700D23E9563E3A700828075
:100C000023A00700C107D5BFF327503093F707FC97
:100C100093E73700739057308280B7050008411181
:100C200015469385452A054506C697100000E780BE
:100C3000009C054597000000E780C0EB41119347F9
:100C4000F5FF22C406C6139747012A8409E79700D7
:100C50000000E780C0FCB705000815469385C52A4B
:100C6000054597100000E7808098228597000000D6
:100C7000E78040E8411106C697000000E780C0D534
:100C80001305700597000000E78020F6970000002C
:100C9000E780C0F7B240410117F3FFFF6700E35A56
:100CA0008280411126C2AA841305206006C622C490
:100CB00097000000E78080C913059060970000004E
:100CC000E780C0C80D4597000000E780E0CC3715ED
:100CD0000140A1464146814513050580970000006B
:100CE000E78080BC372401401305044097000000D2
:100CF000E780A084014597000000E7800089014655
:100D000089451305044097000000E780008A0146EA
:100D1000930500101305044097000000E780E08869
:100D200081451305044097000000E780808C05464C
:100D300085451305044097000000E78080918946AF
:100D40000D4681451305044097000000E78000959B
:100D500037060E0085451305044097000000E78024
:100D600020A7054685451305044097000000E7804D
:100D700060A99DCC054693050040130504409700EB
:100D80000000E780808205468945130504409700EE
:100D90000000E780008C97000000E780408A9D46B5
:100DA000414681451305044097000000E780E09A22
:100DB000372401401305044097000000E7800085B8
:100DC0001305044097000000E780408513050440A8
:100DD0002244B24092448545410117030000670058
:100DE00003A639713ECCB707002083A7870806DE2B
:100DF00016DC1ADA1ED82AD62ED432D236D03ACE03
:100E000042CA46C872C676C47AC27EC08297F25081
:100E1000E2525253C2533255A2551256825672476D
:100E2000E2475248C248324EA24E124F824F2161D1
:100E30007300203039713ECCB707002083A7C70864
:100E400006DE16DC1ADA1ED82AD62ED432D236D0D6
:100E50003ACE42CA46C872C676C47AC27EC082976B
:100E6000F250E2525253C2533255A2551256825694
:100E70007247E2475248C248324EA24E124F824F4A
:100E8000216173002030011122CC2A84414506CE15
:100E90002EC632C497000000E7802050B24522469B
:100EA00000C1F24062444CC110C523260500056113
:100EB00082801C455841BA971CC582800000000002
:100EC0005D7106C012C216C41AC61EC82ACA2ECC2C
:100ED00032CE36D03AD23ED442D646D872DA76DC1A
:100EE0007ADEFEC0F322103496C0F322003096C2A0
:100EF000F322407C96C4732520348A859700000035
:100F0000E78000D486427390123496427390023088
:100F1000A6427390427C82401242A2423243C243B4
:100F20005245E245724682561257A2573258C2586D
:100F3000525EE25E725F864F616173002030000096
:100F4000000000005D7106C012C216C41AC61EC899
:100F50002ACA2ECC32CE36D03AD23ED442D646D849
:100F600072DA76DC7ADEFEC073D0E87E7350F97EEA
:100F700073D0B97EF390D07E73700430B642739014
:100F8000427CA6427390123496427390223482407F
:100F90001242A2423243C2435245E2457246825651
:100FA0001257A2573258C258525EE25E725F864FA5
:100FB000616173002030AA82B68E214363C46E0043
:100FC0009102E11E8A0E3D433313D3011343F3FF15
:100FD000AE83B3E3C300B393D30103AE0200337E09
:100FE0006E00336E7E0023A0C2018280F18D2D8EB3
:100FF0004206D18D0CC982804CC982804CC582804A
:101000000C458280B712024003A3C2013363A300E0
:1010100023AE62008280B712024003A382013363D1
:10102000A30023AC62008280711106C04145970085
:101030000000E78060FDB71200401303B00623A450
:1010400062021303703E23A6620223A80200054336
:1010500023A06200824011018280B712004003A5E4
:10106000020119C123A802008280711106C0214526
:1010700097000000E78060FA37150140130505C0AE
:1010800081450D4681460D4797000000E780E0F25C
:101090008506E39BE6FE82401101828097F2FF17EE
:1010A000938242F6038502008280711106C03715D3
:1010B0000140130505C097F2FF179382A2F48385C0
:1010C0000200FD1563D305009D452380B2001D4637
:1010D00097000000E780C0F1038502008240110103
:1010E0008280711106C0214597000000E780E0F280
:1010F00037150140130505C081450D46A1464147FE
:1011000097000000E78060EB8506E39BE6FE8240E7
:1011100011018280711106C097F2FF179382C2EE0F
:1011200083A20200AA9237150140130505C083C5AA
:101130000200A20537060100130606F09700000022
:10114000E78000EB82401101828097F2FF179382C3
:10115000A2EB83A20200AA922380B200828097F2BF
:10116000FF17938262EA83A20200AA9203A50200FB
:101170008280711106C0114597000000E780E0E908
:1011800037150140130505808145114695462547D1
:1011900097000000E78060E28506E39BE6FE824060
:1011A00011018280711106C07D5E97FEFF17938E3C
:1011B0006EE603A30E009303F3FF23A07E00639764
:1011C000030423A06E003715014013050580970026
:1011D0000000E78020E39581BD898DC98581333585
:1011E000B0003303A00085813335B0002A93858198
:1011F0003335B0002A9397000000E78060EA0A05C3
:10120000336EA3001303002023A06E00728582407A
:101210001101828097F2FF17938202E0239002006F
:10122000828097F2FF17938222DF03D30200A54347
:101230000503137EF30063D8C3031903135E430051
:10124000137EFE0063D1C30313030306135E830002
:10125000137EFE0063D9C30113030360135EC30052
:1012600063D3C301014323906200828097F2FF178A
:10127000938282DA03D50200828097F2FF1793826D
:10128000C2D903A302007D1323A0620063500302AE
:101290001303F00823A0620097F2FF179382C2D6CF
:1012A00003A302001343130023A062008280AA85D7
:1012B000814601460145170300006700633841116C
:1012C00022C406C697070000938747402A8491C727
:1012D000814597000000E780603F970700009387F3
:1012E000A74F88431C5591C3829722859700000021
:1012F000E78040804111970700009387274E22C462
:10130000170400001304844D1D8C26C206C60984F0
:10131000BE8411E4B24022449244410182807D1493
:1013200093172400A6979C438297E5B7411197072E
:1013300000009387A74A22C4170400001304044A3C
:101340001D8C26C24AC006C6098481443E89639624
:10135000840297070000938767481704000013046E
:10136000E4471D8C098481443E89639F8400B24018
:101370002244924402494101828093972400CA97F3
:101380009C4385048297E1B793972400CA979C43B6
:1013900085048297D9BF97F7FF179387E7CEAA8571
:1013A0008843170300006700E3012A8309CA838387
:1013B0000500230073007D16050385056DFA828004
:1013C000011126CA93843500F19806CE22CC4AC872
:1013D0004EC6A104B14763F3F406B14463E2B40618
:1013E0002A8997000000E780E03A97F7FF17938774
:1013F00067CA98433A8439EC97F7FF179387C7C9B0
:101400009C4399EB81454A8597000000E780C01A0C
:1014100097F7FF1723A2A7C8A6854A859700000063
:10142000E7808019FD59631F3507B1472320F90074
:101430004A8597000000E780003629A0E3D004FA2F
:10144000B1471CC10145F2406244D2444249B2490D
:10145000056182801C40858F63C30704AD4663F637
:10146000F6001CC03E9404C001A85C4063178702CC
:1014700017F7FF172320F7C24A8597000000E7807F
:1014800080311305B4009307440061993307F54098
:101490005DDB3A94898F1CC07DB75CC3F1BF2287A6
:1014A000404091BF130435007198E30E85FAB305EF
:1014B000A4404A8597000000E7800010E31535FB43
:1014C000ADB7411197F7FF17938707BC22C480433C
:1014D00026C206C61C5CAA848DEF614597000000F9
:1014E000E780A0EBB737CDAB08DC9387E7301CC1B2
:1014F000B7176DE6938747235CC1B7E7050093876D
:10150000C7EE1CC5AD472316F5000547814718C92E
:101510005CC91C5CB240224484CB23AA07009244DD
:1015200041018280411197F7FF179387E7B522C4E5
:10153000804306C61C5C8DEF614597000000E78084
:10154000C0E5B737CDAB08DC9387E7301CC1B717D0
:101550006DE6938747235CC1B7E705009387C7EE25
:101560001CC5AD472316F5000547814718C95CC95E
:10157000105C3787954CB7F75158144A484A1307FF
:10158000D7F29387D742B387F602B240224433059D
:10159000E5023E95B387E60233B7E602938617006D
:1015A00014CA2A9733B5F6003A9548CA060505814C
:1015B00041018280411122C42A842E8597F7FF17AA
:1015C00023A607B606C697F0FFFFE7806057FD57D2
:1015D0006319F50097F7FF17938747B59C4391C3AD
:1015E0001CC0B24022444101828097F7FF179387C5
:1015F000A7A9B2862E86AA85884317030000670034
:101600008300411122C42A842E85B285368697F73D
:10161000FF1723AD07B006C697000000E780C0178C
:10162000FD576319F50097F7FF17938727B09C4381
:1016300091C31CC0B24022444101828097F7FF173A
:101640009387C7A59C432A8E8DE717F7FF171307CB
:1016500027A597F7FF1723A3E7A417F5FFF71305AF
:10166000659ABA8719C51C4117F5FF17232EF5AAED
:10167000BA87D8437D487D556347E804630E0E0260
:1016800003A887086301080493182700C29823A0C1
:10169000C8000323081005463316E6003363C30071
:1016A0002320681023A0D80889466317DE0083260C
:1016B0004810558E2322C810930617000A07D4C37A
:1016C000BA978CC701458280797152CC56CA5AC8E4
:1016D0005EC606D622D426D24AD04ECE62C42A8B0B
:1016E0002E8A97FAFF17938A6A9B854B03A40A00F8
:1016F00011C84440832984081389F4FF8A04A29402
:10170000635E0900B250225492540259F249624A6F
:10171000D24A424BB24B224C45618280630E0A0092
:10172000639509007D19F114E1BF93172900CE9745
:1017300083A70708E39847FF5840DC407D176318EC
:10174000270323222401F9DF032C440063880900C6
:1017500083A6091033972B01F98E89EE82975840A2
:1017600083A70A00E31487F9E30EF4FA41B723A232
:101770000400D1BF93162900CE968C4283A649104F
:10178000758F01E75A858297D9BF2E858297C1BF91
:1017900082808280411106C622C48146014781476A
:1017A00093080004730000002A84635A0500330480
:1017B000804097000000E780600100C17D542285D1
:1017C000B24022444101828097F7FF179387C78B6D
:0417D0008843828048
:0417D40020000020D1
:1017D80007000000080000200000000000000000D2
:1017E80000020000FFFF8F0000000700000000005B
:1017F80000000000000000000000000000000000E1
:1018080000000000000000000000000000000000D0
:1018180000000000000000000000000000000000C0
:1018280000000000000000000000000000000000B0
:1018380000000000000000000000000000000000A0
:101848000000000000000000000000000000000090
:081858003001002020000020F7
:040000050800015C92
:00000001FF
