:020000040800F2
:10000000B1AA010000000000000000000000000094
:1000100000000000000000000000000000000000E0
:1000200000000000000000000000000000000000D0
:1000300000000000000000000000000000000000C0
:1000400000000000000000000000000000000000B0
:1000500000000000000000000000000000000000A0
:100060000000000000000000000000000000000090
:100070000000000000000000000000000000000080
:100080000000000000000000000000000000000070
:100090000000000000000000000000000000000060
:1000A0000000000000000000000000000000000050
:1000B0000000000000000000000000000000000040
:1000C0000000000000000000000000000000000030
:1000D0000000000000000000000000000000000020
:1000E0000000000000000000000000000000000010
:1000F0000000000000000000000000000000000000
:1001000000000000000000000000000000000000EF
:1001100000000000000000000000000000000000DF
:1001200000000000000000000000000000000000CF
:1001300000000000000000000000000000000000BF
:1001400000000000000000000000000000000000AF
:100150000000000000000000000000007370043088
:10016000170500001305C5FF8545F605637BB5003F
:1001700089816378B500170500001305C5002E9529
:1001800002859302002073A0027D970200009382F3
:1001900062E773907230970200009382E246739098
:1001A000C27E73E0C07E970200009382A23D7390EE
:1001B0005230970100189381E16A178100181301EA
:1001C00061E41715000013056589970500189385EC
:1001D00065E317060018130666E963FAC500832273
:1001E000050023A0550011059105E3EAC5FE17059A
:1001F00000181305A5E7970500189385A5F0637708
:10020000B500232005001105E36DB5FE73F0023241
:10021000170500001305655A97000000E780805518
:1002200097000000E780E05C97000000E780E02F87
:100230000145814597000000E780A04A17030000B0
:100240006700435401A073E00232828073F00232EF
:0402500082800000A8
:100280000A50726F6772616D2068617320657869CA
:10029000746564207769746820636F64653A000050
:1002A000307800006E6D690A0000000074726170A1
:1002B0000A000000B71702409843B706FFE0B106F6
:1002C0001367170098C3D843758FD8C39843B706F0
:1002D000F7FEFD16758F98C39843B706FCFFFD1611
:1002E000758F98C3D843B70601DFFD16758FD8C345
:1002F00023A607029843B706F7EAFD16758F98C341
:100300003707FF0098C794434167D98E94C393077A
:10031000F7FF3717024014431396E60063440600C4
:10032000FD17F5FBB717024098439316E70063C328
:10033000060001A0D843B706C4DFFD16D8C3D843D2
:10034000D8C3D84313670740D8C3D843758FD8C3E1
:10035000D843B7062920558FD8C3D857BD76758F97
:10036000D8D7D857C166938616F1558FD8D79843FA
:10037000B7060004558F98C3B717024098439316E9
:100380004700E3DD06FE9843B7060010558F98C37B
:10039000B7170240984393162700E3DD06FE984303
:1003A000B7060001558F98C3B717024098439316BC
:1003B0006700E3DD06FED843719BD8C3D8431367BB
:1003C0002700D8C3371702405C43A18BF5DF82803A
:1003D0007971B705000822D47D462A8493850528C3
:1003E0000A8506D697000000E780404779468A854F
:1003F000094597000000E780C047A285094597009E
:100400000000E780E001B705000805469385052B4D
:10041000094597000000E780C04501A079714ECEE4
:10042000AE89B705000809469385052A22D426D24D
:100430004AD052CC56CA06D62A8971449700000089
:10044000E78020433D4AA54AF154B3178A00B3F729
:100450003701B3D7870093F7F70F63ECFA0293875E
:10046000070393F7F70F05469305F1004A857114CA
:10047000A307F10097000000E780A03FE31794FC7A
:10048000B250225492540259F249624AD24A45610A
:10049000828093877703F1B7B70700D223800700E4
:1004A000A38507001205B71700D23E9563E3A700A6
:1004B000828023A00700C107D5BFF327503093F7F0
:1004C00007FC93E73700739057308280B705000828
:1004D000411115469385452A054506C6970000003B
:1004E000E7802039054597000000E780A0EE411124
:1004F0009347F5FF22C406C6139747012A8409E7EC
:1005000097000000E780C0FCB705000815469385FA
:10051000C52A054597000000E780A0352285970091
:100520000000E78020EB411106C697000000E7803D
:10053000A0D81305700597000000E78020F697000B
:100540000000E780C0F7B2404101170300006700D8
:10055000C3CF828000000000000000000000000007
:10056000000000000000000000000000000000008B
:10057000000000000000000000000000000000007B
:100580005D7106C012C216C41AC61EC82ACA2ECC75
:1005900032CE36D03AD23ED442D646D872DA76DC63
:1005A0007ADEFEC0F322103496C0F322003096C2E9
:1005B000F322407C96C4732520348A85970000007E
:1005C000E78020F386427390123496427390023093
:1005D000A6427390427C82401242A2423243C243FE
:1005E0005245E245724682561257A2573258C258B7
:1005F000525EE25E725F864F6161730020300000E0
:10060000000000005D7106C012C216C41AC61EC8E2
:100610002ACA2ECC32CE36D03AD23ED442D646D892
:1006200072DA76DC7ADEFEC073D0E87E7350F97E33
:1006300073D0B97EF390D07E73700430B64273905D
:10064000427CA642739012349642739022348240C8
:100650001242A2423243C2435245E245724682569A
:100660001257A2573258C258525EE25E725F864FEE
:10067000616173002030AA82B68E214363C46E008C
:100680009102E11E8A0E3D433313D3011343F3FF5E
:10069000AE83B3E3C300B393D30103AE0200337E52
:1006A0006E00336E7E0023A0C201828033F3C5004A
:1006B000B3436600C203336373002328650082805E
:1006C0000315850082800315C5008280B7120240A1
:1006D00003A382013363A30023AC6200828031450F
:1006E00097000000E780C0FE37150140130505C0E4
:1006F00081450D4681460D4797000000E780E0F7F1
:100700008506E39BE6FE37150140130505809145FC
:1007100001469546254797000000E78000F68506CC
:10072000E39BE6FE371501401305058097000000A6
:10073000E78040F9935555009D8937150140130511
:1007400005C01D4697000000E78080F66343B000B7
:10075000D1BF371501401305058097000000E780E1
:1007600060F693555500BD89A142E38D55FAD5B782
:10077000AA858146014601451703000067008314DE
:10078000411122C406C6970700009387671C2A847C
:1007900091C7814597000000E780801B9707000004
:1007A0009387872B88431C5591C382972285970096
:1007B0000000E78020C24111970700009387072AB5
:1007C00022C417040000130464291D8C26C206C627
:1007D0000984BE8411E4B2402244924441018280E3
:1007E0007D1493172400A6979C438297E5B7411187
:1007F000970700009387872622C41704000013047C
:10080000E4251D8C26C24AC006C6098481443E895F
:10081000639684029707000093874724170400001B
:100820001304C4231D8C098481443E89639F840082
:10083000B2402244924402494101828093972400AD
:10084000CA979C4385048297E1B793972400CA977F
:100850009C4385048297D9BF2A8309CA83830500F4
:10086000230073007D16050385056DFA828097F7D6
:10087000FF179387277FB2862E86AA8588431703A2
:10088000000067008300411122C42A842E85B285AE
:1008900036869707001823A3078606C69700000030
:1008A000E7808017FD576319F500970700189387B5
:1008B000E7849C4391C31CC0B24022444101828022
:1008C00097F7FF179387877A9C432A8E8DE717F750
:1008D000FF171307E77997F7FF1723A9E77817F5AD
:1008E000FFF713052572BA8719C51C4117050018B3
:1008F0002324F580BA87D8437D487D556347E804B3
:10090000630E0E0203A887086301080493182700EA
:10091000C29823A0C8000323081005463316E6003A
:100920003363C3002320681023A0D80889466317C7
:10093000DE0083264810558E2322C8109306170028
:100940000A07D4C3BA978CC701458280797152CC0B
:1009500056CA5AC85EC606D622D426D24AD04ECE31
:1009600062C42A8B2E8A97FAFF17938A2A70854BC6
:1009700003A40A0011C84440832984081389F4FFA2
:100980008A04A294635E0900B25022549254025920
:10099000F249624AD24A424BB24B224C45618280B4
:1009A000630E0A00639509007D19F114E1BF9317E6
:1009B0002900CE9783A70708E39847FF5840DC40FB
:1009C0007D176318270323222401F9DF032C440039
:1009D0006388090083A6091033972B01F98E89EEED
:1009E0008297584083A70A00E31487F9E30EF4FACC
:1009F00041B723A20400D1BF93162900CE968C42A2
:100A000083A64910758F01E75A858297D9BF2E8535
:100A10008297C1BF411106C622C481460147814762
:100A200093080004730000002A84635A050033040D
:100A3000804097000000E780600100C17D5422855E
:100A4000B24022444101828097F7FF179387876164
:040A500088438280D5
:040A5400000000207E
:100A5800000000000000000000000000000000008E
:100A6800000000000000000000000000000000007E
:100A7800000000000000000000000000000000006E
:100A8800000000000000000000000000000000005E
:100A9800000000000000000000000000000000004E
:100AA800000000000000000000000000000000003E
:080AB800000000200000000016
:040000050800015C92
:00000001FF
