:020000040800F2
:10000000B1AA010000000000000000000000000094
:10001000000000000000000000000000F4100008D4
:1000200000000000000000000000000000000000D0
:1000300000000000000000000000000000000000C0
:1000400000000000000000000000000000000000B0
:1000500000000000000000000000000000000000A0
:100060000000000000000000000000000000000090
:100070000000000000000000000000000000000080
:100080000000000000000000000000000000000070
:100090000000000000000000000000000000000060
:1000A0000000000000000000000000000000000050
:1000B0000000000000000000000000000000000040
:1000C0000000000000000000000000000000000030
:1000D0000000000000000000000000000000000020
:1000E00046110008000000000000000000000000B1
:1000F0000000000000000000000000000000000000
:1001000000000000000000000000000000000000EF
:1001100000000000000000000000000000000000DF
:1001200000000000000000000000000000000000CF
:1001300000000000000000000000000000000000BF
:1001400000000000000000000000000000000000AF
:100150000000000000000000000000007370043088
:10016000170500001305C5FF8545F605637BB5003F
:1001700089816378B500170500001305C5002E9529
:1001800002859302002073A0027D970200009382F3
:1001900062E773907230971200009382E22E7390A0
:1001A000C27E73E0C07E971200009382A2257390F6
:1001B0005230970100189381E16C178100181301E8
:1001C00061E41725000013056592970500189385D3
:1001D00065E317060018130666EB63FAC500832271
:1001E000050023A0550011059105E3EAC5FE17059A
:1001F00000181305A5E997050018938525F3637783
:10020000B500232005001105E36DB5FE73F0023241
:10021000171500001305456397100000E780605E26
:1002200097100000E780C06597100000E780E0D5D8
:100230000145814597000000E78000081713000082
:100240006700235D01A073E00232828073F0023206
:0402500082800000A8
:100280000A50726F6772616D2068617320657869CA
:10029000746564207769746820636F64653A000050
:1002A000307800006E6D690A0000000074726170A1
:1002B0000A000000011106CE22CC26CA4AC84EC64A
:1002C00056C252C497100000E780402A97100000E1
:1002D000E780203097100000E7802037971000005B
:1002E000E780603E054597100000E78020EB05455C
:1002F00097100000E78040CC856637240140814498
:10030000130404408549938A06FA138906FF894538
:100310002285850497000000E7806040631C350358
:100320009145228597000000E780603F63133509FF
:100330008145228597000000E780A03B8945228502
:1003400097000000E780403E91452285970000001D
:10035000E780803D97100000E78060244DD95687E4
:10036000CA8601468145528597100000E780202407
:1003700097100000E780200797100000E7806029B1
:1003800097100000E780802F93D58440194597107F
:100390000000E7800032A6851D4597100000E78029
:1003A00040318545228597000000E7800032814476
:1003B000B9BF228597000000E78020332A8A89454B
:1003C00069B74111B727014006C693870740630B01
:1003D000F500B7370140938707806303F502B24009
:1003E000410182801305903097000000E780404073
:1003F00013059030B2404101170300006700C3406D
:100400001305A03097000000E780803E1305A03060
:10041000D5B7B727014003A74740B706F1FFFD1640
:10042000758F23A2E74003A74740598D23A2A74019
:10043000828093F7051013F7054089890DC289C79B
:100440005C4193E707105CC109C75C4193E7074033
:100450005CC189C51C4593E727001CC5828089C7FC
:100460005C4193F7F7EF5CC109C75C4193F7F7BFB5
:100470005CC1EDD51C45F59BCDB71C4599C50567FD
:1004800013070780D98F1CC582807D771307F77FFC
:10049000F98FD5BF1C45858B89E71C4593E717006D
:1004A0001CC582801C451307850093E787001CC587
:1004B0001C43A18BF5FF1C4593E747001CC51C435B
:1004C000918BF5FF82803727014083278740B7064D
:1004D0008000D58F2324F740828085476386F5000E
:1004E00089476382F50282805C55370710FF7D17CC
:1004F000F98F5CD55C557D1652063707F000798E72
:100500005D8E50D582801C5D3707D0FF7D17F98F37
:100510001CDD1C5D7D16520637073000798E5D8E1E
:1005200010DD828015476363B704B385E5020328B5
:100530004503FD47B397B70093C7F7FFB3F707012C
:10054000B315B600DD8D4CD9A54763E9C7068D47C5
:100550003306F6020C491D473317C7001347F7FF50
:100560006D8F3396C600598E10C98280AD4763E304
:10057000B702E915B385E50203280503FD47B397E4
:10058000B70093C7F7FFB3F70701B315B600DD8DCA
:100590000CD95DBFBD47E3E9B7FAD115B385E502D4
:1005A0000328C502FD47B397B70093C7F7FFB3F71A
:1005B0000701B315B600DD8D4CD579B7C54763E1AA
:1005C000C7028D4759163306F60258459D47B39723
:1005D000C70093C7F7FFF98F3396C600D18F5CC56C
:1005E00082801C5D7D4703288503D1838D8BB38575
:1005F000B740ED57B385F502A547BD053317B700E2
:100600001347F7FF33770701B315B600D98D0CDD1B
:1006100063E1C7020D473306E6021C491D47331745
:10062000C7001347F7FF7D8F3396C600598E10C958
:100630008280C54763E1C7028D4759163306F6022B
:1006400058459D47B397C70093C7F7FFF98F339677
:10065000C600D18F5CC5828085476386F5008947D7
:10066000638DF50082801445B705F2FFFD15ED8E10
:1006700014C51845518F18C582801845E576FD16BA
:10068000758F18C51C45D18F1CC5828093F7150046
:10069000898909CE91C71C4537071000D98F1CC521
:1006A00089C51C452167D98F1CC5828099C71C4507
:1006B0003707F0FF7D17F98F1CC5E5D91C45617719
:1006C0007D17F98FD5B793F7150091C71C453707EC
:1006D0004000D98F1CC5898991C51C45370720006A
:1006E000D98F1CC58280684542054181828085473B
:1006F000638FF50099C98947638DF5008D47638C39
:10070000F5000145420541818280485DE5BF2841F1
:10071000D5BF6841C5BF2845F5B708416D8D333554
:10072000A00082801C4193C5F5FFFD8D0CC1828025
:1007300093F7050193F8F50099C3B3E8C800814722
:10074000054EBD4E130F8002930F800421433316D4
:10075000FE00758E1DC21397270083220500339873
:10076000EE001348F8FF337858003397E8003367FA
:1007700007016399E50550C918C18507E39967FC2E
:10078000054EBD4E130F8002930F80044143331674
:10079000FE00758E05C613972700011783224500BA
:1007A0003398EE001348F8FF337858003397E80089
:1007B00033670701639CE50150C958C18507E39879
:1007C00067FC8280E39AF5FB10C97DB7E397F5FFDC
:1007D00010C9E5B7B7170240135765003E97144399
:1007E0008547B397A700D58F1CC38280B7170240F7
:1007F000135765003E9714438547B397A700D58FDD
:100800001CC38280B7170240135765003E971443FC
:100810008547B397A70093C7F7FFF58F1CC3828066
:10082000B7170240DC433747FFEF7D17F98F1547B5
:10083000630EE5006369A7000D476370A7023717D1
:1008400002405CC382801D47E31BE5FE3A05317719
:10085000798D5D8DB707001011A03A05C98FC5B716
:100860004111B717004006C6138707C0630EE5089D
:100870006367A70237070040930607406304D50665
:10088000938707806309F5066312E50A13050040A4
:1008900097000000E780C0F51305004035A81387D6
:1008A0000740630CE50637370140130707C0630DA7
:1008B000E500631DF5061305404097000000E78042
:1008C00020F31305404009A81305B030970000003D
:1008D000E78000F21305B030B24041011703000079
:1008E000670083F21305104097000000E78040F096
:1008F00013051040D5B71305204097000000E7808E
:1009000020EF13052040C9BF1305304097000000B9
:10091000E78000EE13053040C1B713055040970043
:100920000000E780E0EC130550407DB7B240410184
:100930008280C167FD1723200500231205001CC516
:100940002316050023070500828083D7050003D7FF
:1009500045009376F5BF1CD5B7370140938707C094
:10096000418B630AF500FD779387F73FE98F3706E0
:1009700000406390C7061C4193F7F7F81CC183D76A
:100980002500104193F70706D18F1CC11C415D8FD4
:1009900018C19C455CD5B71700406387F6021C411F
:1009A00093F7F7CF1CC183D7C500184193F70730E1
:1009B000D98F1CC1B7370140138707C06316E50004
:1009C00003C7E50023A8E7C25C4993E717005CC9A9
:1009D00082801C41BD9B55BF1C4193E717001CC181
:1009E00082801C4193E707081CC182802310050008
:1009F000231105002312050023130500231405000D
:100A00002315050082808547638EF50881C98947D3
:100A10006389F5128D476387F51C82801C51F99B11
:100A20001CD1185183570600D98F1CD11C51F59B3E
:100A30001CD1185183574600D98F1CD1B7370140BC
:100A4000138707C0631CE50418516D9B18D114511E
:100A500003572600558F18D118515D9B18D114519A
:100A600003576600558F18D103A747C01377F7EFD8
:100A700023A2E7C083A647C003578600558F23A251
:100A8000E7C003A747C01377F7DF23A2E7C083A619
:100A900047C00357A600558F23A2E7C01C4DF19B0A
:100AA0001CCD82801C51BD9B1CD183570600185160
:100AB0009207D98F1CD11C5193F7F7FD1CD1835796
:100AC000460018519207D98F1CD1B73701401387C0
:100AD00007C06314E50618511377F7FB18D10357C5
:100AE000260014511207558F18D118511377F7F7B4
:100AF00018D10357660014511207558F18D103A758
:100B000047C01377F7BF23A2E7C00357860083A629
:100B100047C00A07558F23A2E7C003A747C0FD7649
:100B20009386F67F758F23A2E7C00357A60083A69E
:100B300047C00A07558F23A2E7C01C4D93F7F7CF94
:100B400085B71C5193F7F7EF1CD183570600185156
:100B5000A207D98F1CD11C5193F7F7DF1CD1835703
:100B600046001851A207D98F1CD1B737014013870F
:100B700007C06315E50618511377F7BF18D103575F
:100B8000260014512207558F18D11851FD769385F0
:100B9000F67F6D8F18D1035766000C51FD162207A2
:100BA0004D8F18D103A747C0F98E23A2D7C0035792
:100BB000860083A647C01207558F23A2E7C003A76C
:100BC00047C0F976FD16758F23A2E7C00357A6002C
:100BD00083A647C01207558F23A2E7C05C4DF19B47
:100BE0005CCD82801C517D777D17F98F1CD1835796
:100BF00006001851B207D98F1CD11C5179777D1787
:100C0000F98F1CD1835746001851B207D98F1CD1D8
:100C1000B7370140138707C06311E50203A747C038
:100C2000F176FD16758F23A2E7C00357860083A6D1
:100C300047C01A07558F23A2E7C05C4D93F7F7CF43
:100C400045B785476382F50281C989476386F50206
:100C50008D47638BF50282801C4D93F7F7F81CCD0E
:100C60001C4D5D8E10CD82801C4D65777D17F98FF0
:100C70001CCD1C4D2206F5B75C4D93F7F7F85CCD03
:100C80005C4D5D8E50CD82805C4D65777D17F98F10
:100C90005CCD5C4D2206F5B78547638CF50081C9B4
:100CA0008947638AF5008D476389F500828050D9B2
:100CB000828010DD828050DD828030C18280854755
:100CC0006381F50281C989476386F5028D47638A8E
:100CD000F50282801C4DDD9B1CCD1C4D5D8E10CD20
:100CE00082801C4D7D771307F77FF98F1CCD1C4D3B
:100CF0002206EDB75C4DDD9B5CCD5C4D5D8E50CD2D
:100D000082805C4D7D771307F77FF98F5CCD5C4D5A
:100D10002206EDB7B71702409843B706FFE0B106C9
:100D20001367170098C3D843758FD8C39843B70685
:100D3000F7FEFD16758F98C39843B706FCFFFD16A6
:100D4000758F98C3D843B70601DFFD16758FD8C3DA
:100D500023A607029843B706F7EAFD16758F98C3D6
:100D60003707FF0098C794434167D98E94C3930710
:100D7000F7FF3717024014431396E600634406005A
:100D8000FD17F5FBB717024098439316E70063C3BE
:100D9000060001A0D843B706C4DFFD16D8C3D84368
:100DA000D8C3D84313670740D8C3D843758FD8C377
:100DB000D843B7062920558FD8C3D857BD76758F2D
:100DC000D8D7D857C166938616F1558FD8D7984390
:100DD000B7060004558F98C3B7170240984393167F
:100DE0004700E3DD06FE9843B7060010558F98C311
:100DF000B7170240984393162700E3DD06FE984399
:100E0000B7060001558F98C3B71702409843931651
:100E10006700E3DD06FED843719BD8C3D843136750
:100E20002700D8C3371702405C43A18BF5DF8280CF
:100E30007971B705000822D47D462A849385052858
:100E40000A8506D697100000E78020AA79468A8591
:100E5000094597100000E780A0AAA28509459700E0
:100E60000000E780E001B705000805469385052BE3
:100E7000094597100000E780A0A801A079714ECE27
:100E8000AE89B705000809469385052A22D426D2E3
:100E90004AD052CC56CA06D62A897144971000000F
:100EA000E78000A63D4AA54AF154B3178A00B3F77C
:100EB0003701B3D7870093F7F70F63ECFA029387F4
:100EC000070393F7F70F05469305F1004A85711460
:100ED000A307F10097100000E78080A2E31794FCBD
:100EE000B250225492540259F249624AD24A4561A0
:100EF000828093877703F1B7B70700D2238007007A
:100F0000A38507001205B71700D23E9563E3A7003B
:100F1000828023A00700C107D5BFF327503093F785
:100F200007FC93E73700739057308280B7050008BD
:100F3000411115469385452A054506C697100000C0
:100F4000E780009C054597000000E780A0EE411176
:100F50009347F5FF22C406C6139747012A8409E781
:100F600097000000E780C0FCB70500081546938590
:100F7000C52A054597100000E780809822859700D4
:100F80000000E78020EB411106C697000000E780D3
:100F9000A0D81305700597000000E78020F69700A1
:100FA0000000E780C0F7B240410117F3FFFF670080
:100FB000C3298280411126C2AA841305206006C677
:100FC00022C497000000E7802081130590609700FD
:100FD0000000E78060800D4597000000E780808476
:100FE00037150140A146414681451305058097F01C
:100FF000FFFFE7802074372401401305044097F079
:10100000FFFFE780403C014597F0FFFFE780A040ED
:10101000014689451305044097F0FFFFE780A04192
:101020000146930500101305044097F0FFFFE78089
:10103000804081451305044097F0FFFFE78020447E
:10104000054685451305044097F0FFFFE7802049DA
:1010500089460D4681451305044097F0FFFFE78060
:10106000A04C37060E0085451305044097F0FFFF9E
:10107000E780C05E054685451305044097F0FFFFF5
:10108000E78000619DCC05469305004013050440B0
:1010900097F0FFFFE780203A054689451305044095
:1010A00097F0FFFFE780A04397F0FFFFE780E04164
:1010B0009D46414681451305044097F0FFFFE780B8
:1010C0008052372401401305044097F0FFFFE7806A
:1010D000A03C1305044097F0FFFFE780E03C1305B8
:1010E00004402244B24092448545410117F3FFFF7A
:1010F0006700A35D39713ECCB707002083A787083E
:1011000006DE16DC1ADA1ED82AD62ED432D236D013
:101110003ACE42CA46C872C676C47AC27EC08297A8
:10112000F250E2525253C2533255A25512568256D1
:101130007247E2475248C248324EA24E124F824F87
:1011400021617300203039713ECCB707002083A79E
:10115000C70806DE16DC1ADA1ED82AD62ED432D2FA
:1011600036D03ACE42CA46C872C676C47AC27EC06B
:101170008297F250E2525253C2533255A255125640
:1011800082567247E2475248C248324EA24E124F30
:10119000824F216173002030397122DC2A841305CB
:1011A000206006DE4ED626DA4AD897F0FFFFE780A9
:1011B000A062130500609379140097F0FFFFE780A9
:1011C000A061638D09003715014085460D46E14554
:1011D0001305058097F0FFFFE780C05513792400C1
:1011E000630D09003715014089460D46E145130599
:1011F000058097F0FFFFE780E0539374440081CCB3
:101200003715014091460D46E1451305058097F0DD
:10121000FFFFE7802052218801CC37150140A1460D
:101220000D46E1451305058097F0FFFFE7808050EC
:101230001305007097F0FFFFE780005A3705004064
:1012400097F0FFFFE7800062080897F0FFFFE78054
:10125000806E9307B0063EC891679387F7E70C0846
:10126000370500403ECC231A0100231E0100230F46
:10127000010097F0FFFFE780806D480097F0FFFFC7
:10128000E780007785473EC202C402C6638A090030
:10129000500081453705004097F0FFFFE780E0767A
:1012A000630A0900500085453705004097F0FFFFAD
:1012B000E780A07589C8500089453705004097F040
:1012C000FFFFE780807409C850008D453705004056
:1012D00097F0FFFFE7806073638D09020D661306C8
:1012E000F6ED81453705004097000000E780009B40
:1012F0001306000681453705004097000000E7808F
:101300008094014681453705004097000000E78042
:10131000409B630D09020D661306F6ED8545370502
:10132000004097000000E78060971306000685459F
:101330003705004097000000E780E09001468545B2
:101340003705004097000000E780A09785CC0D6628
:101350001306F6ED89453705004097000000E78049
:10136000E09313060006894537050040970000000A
:10137000E780608D014689453705004097000000F1
:10138000E780209405CC0D661306F6ED8D453705F4
:10139000004097000000E7806090130600068D452E
:1013A0003705004097000000E780E08901468D4541
:1013B0003705004097000000E780A0903705004007
:1013C00097F0FFFFE78020623705004097F0FFFFAE
:1013D000E780C060F2506254D2544259B259216140
:1013E00082802A8681453705004017030000670088
:1013F000E38A000000000000000000000000000080
:101400005D7106C012C216C41AC61EC82ACA2ECCE6
:1014100032CE36D03AD23ED442D646D872DA76DCD4
:101420007ADEFEC0F322103496C0F322003096C25A
:10143000F322407C96C4732520348A8597000000EF
:10144000E78020B186427390123496427390023046
:10145000A6427390427C82401242A2423243C2436F
:101460005245E245724682561257A2573258C25828
:10147000525EE25E725F864F616173002030000051
:10148000000000005D7106C012C216C41AC61EC854
:101490002ACA2ECC32CE36D03AD23ED442D646D804
:1014A00072DA76DC7ADEFEC073D0E87E7350F97EA5
:1014B00073D0B97EF390D07E73700430B6427390CF
:1014C000427CA6427390123496427390223482403A
:1014D0001242A2423243C2435245E245724682560C
:1014E0001257A2573258C258525EE25E725F864F60
:1014F000616173002030AA82B68E214363C46E00FE
:101500009102E11E8A0E3D433313D3011343F3FFCF
:10151000AE83B3E3C300B393D30103AE0200337EC3
:101520006E00336E7E0023A0C2018280F18D2D8E6D
:101530004206D18D0CC982804CC982804CC5828004
:101540000C458280B712024003A3C2013363A3009B
:1015500023AE62008280B712024003A3820133638C
:10156000A30023AC62008280711106C04145970040
:101570000000E78060FDB71200401303B00623A40B
:1015800062021303703E23A6620223A802000543F1
:1015900023A06200824011018280B712004003A59F
:1015A000020119C123A802008280B382B640638E73
:1015B00002003303C740B303B540338E6302B34E1A
:1015C0005E02338FCE007A8511A032858280711140
:1015D00006C0214597000000E78020F8371501403C
:1015E000130505C081450D4681460D479700000053
:1015F000E780A0F08506E39BE6FE82401101828031
:1016000097F2FF17938202A0038502008280711176
:1016100006C037150140130505C097F2FF179382E6
:10162000629E83850200FD1563D305009D452380DE
:10163000B2001D4697000000E78080EF038502009E
:10164000824011018280711106C02145970000007F
:10165000E780A0F037150140130505C081450D4610
:10166000A146414797000000E78020E98506E39BFB
:10167000E6FE824011018280711106C097F2FF17C9
:101680009382829883A20200AA9237150140130523
:1016900005C083C50200A20537060100130606F047
:1016A00097000000E780C0E882401101828097F235
:1016B000FF179382629583A20200AA922380B20050
:1016C0008280711106C0114597000000E780E0E8B4
:1016D000371501401305058081451146954625477C
:1016E00097000000E78060E18506E39BE6FE82400C
:1016F00011018280711106C07D5E97FEFF17938EE7
:101700007E9103A30E009303F3FF23A07E00639753
:10171000030423A06E0037150140130505809700D0
:101720000000E78020E29581BD898DC98581333530
:10173000B0003303A00085813335B0002A93858142
:101740003335B0002A9397000000E780A0EB0A052C
:10175000336EA3001303002023A06E007285824025
:101760001101828097F2FF179382128B239002005F
:10177000828097F2FF179382328A03D30200A54337
:101780000503137EF30063D8C3031903135E4300FC
:10179000137EFE0063D1C30313030306135E8300AD
:1017A000137EFE0063D9C30113030360135EC300FD
:1017B00063D3C301014323906200828097F2FF1735
:1017C0009382928503D50200828097F2FF1793825D
:1017D000D28403A302007D1323A06200635003029E
:1017E0001303F00823A0620097F2FF179382C281CF
:1017F00003A302001343130023A062008280AA8582
:10180000814601460145170300006700831441111A
:1018100022C406C6970700009387671C2A8491C7D5
:10182000814597000000E780801B970700009387A1
:10183000A72B88431C5591C38297228597F0FFFF01
:10184000E780405F4111970700009387272A22C451
:1018500017040000130484291D8C26C206C60984BF
:10186000BE8411E4B24022449244410182807D143E
:1018700093172400A6979C438297E5B741119707D9
:1018800000009387A72622C417040000130404262F
:101890001D8C26C24AC006C6098481443E896396CF
:1018A000840297070000938767241704000013043D
:1018B000E4231D8C098481443E89639F8400B240E7
:1018C0002244924402494101828093972400CA979E
:1018D0009C4385048297E1B793972400CA979C4361
:1018E00085048297D9BF2A8309CA83830500230010
:1018F00073007D16050385056DFA828097E7FF1753
:1019000093874778B2862E86AA85884317030000FE
:1019100067008300411122C42A842E85B285368651
:1019200097F7FF1723A0078006C697000000E780FF
:101930008017FD576319F50097E7FF179387877E98
:101940009C4391C31CC0B24022444101828097E76E
:10195000FF17938727749C432A8E8DE717E7FF179D
:101960001307877397E7FF1723A6E77217E5FFF7BB
:1019700013054569BA8719C51C4117E5FF172321CF
:10198000F57ABA87D8437D487D556347E804630EEE
:101990000E0203A887086301080493182700C29861
:1019A00023A0C8000323081005463316E60033635E
:1019B000C3002320681023A0D80889466317DE00DF
:1019C00083264810558E2322C810930617000A0755
:1019D000D4C3BA978CC701458280797152CC56CA5C
:1019E0005AC85EC606D622D426D24AD04ECE62C48B
:1019F0002A8B2E8A97EAFF17938ACA69854B03A41C
:101A00000A0011C84440832984081389F4FF8A041A
:101A1000A294635E0900B250225492540259F249D2
:101A2000624AD24A424BB24B224C45618280630EDD
:101A30000A00639509007D19F114E1BF931729008D
:101A4000CE9783A70708E39847FF5840DC407D17EF
:101A50006318270323222401F9DF032C4400638841
:101A6000090083A6091033972B01F98E89EE82971E
:101A7000584083A70A00E31487F9E30EF4FA41B74C
:101A800023A20400D1BF93162900CE968C4283A6D0
:101A90004910758F01E75A858297D9BF2E858297A5
:101AA000C1BF411106C622C4814601478147930840
:101AB0000004730000002A84635A05003304804048
:101AC00097000000E780600100C17D542285B2408C
:101AD00022444101828097E7FF179387A75A8843E2
:021AE000828002
:041AE40020000020BE
:101AE80007000000080000200000000000000000BF
:101AF800AA00020000FFFF8F00000007000000009E
:101B080000000000000000000000000000000000CD
:101B180000000000000000000000000000000000BD
:101B280000000000000000000000000000000000AD
:101B3800000000000000000000000000000000009D
:101B4800000000000000000000000000000000008D
:101B5800000000000000000000000000000000007D
:081B6800200000200000000035
:040000050800015C92
:00000001FF
