:020000040800F2
:10000000B1AA010000000000000000000000000094
:1000100000000000000000000000000000000000E0
:1000200000000000000000000000000000000000D0
:1000300000000000000000000000000000000000C0
:1000400000000000000000000000000000000000B0
:1000500000000000000000000000000000000000A0
:100060000000000000000000000000000000000090
:100070000000000000000000000000000000000080
:100080000000000000000000000000000000000070
:100090000000000000000000000000000000000060
:1000A0000000000000000000000000000000000050
:1000B0000000000000000000000000000000000040
:1000C0000000000000000000000000000000000030
:1000D0000000000000000000000000000000000020
:1000E0000000000000000000000000000000000010
:1000F0000000000000000000000000000000000000
:1001000000000000000000000000000000000000EF
:1001100000000000000000000000000000000000DF
:1001200000000000000000000000000000000000CF
:1001300000000000000000000000000000000000BF
:1001400000000000000000000000000000000000AF
:100150000000000000000000000000007370043088
:10016000170500001305C5FF8545F605637BB5003F
:1001700089816378B500170500001305C5002E9529
:1001800002859302002073A0027D970200009382F3
:1001900062E773907230970200009382E246739098
:1001A000C27E73E0C07E970200009382A23D7390EE
:1001B0005230971100189381618017810018130144
:1001C00061E4171500001305A5B597050018938580
:1001D00065E3170600181306E6FE63FAC5008322DE
:1001E000050023A0550011059105E3EAC5FE17059A
:1001F0000018130525FD97050018938525066377DC
:10020000B500232005001105E36DB5FE73F0023241
:10021000171500001305858697100000E780A08160
:1002200097100000E780008997000000E780E02F2A
:100230000145814597000000E78000781713000012
:100240006700638001A073E00232828073F00232A3
:0402500082800000A8
:100280000A50726F6772616D2068617320657869CA
:10029000746564207769746820636F64653A000050
:1002A000307800006E6D690A0000000074726170A1
:1002B0000A000000B71702409843B706FFE0B106F6
:1002C0001367170098C3D843758FD8C39843B706F0
:1002D000F7FEFD16758F98C39843B706FCFFFD1611
:1002E000758F98C3D843B70601DFFD16758FD8C345
:1002F00023A607029843B706F7EAFD16758F98C341
:100300003707FF0098C794434167D98E94C393077A
:10031000F7FF3717024014431396E60063440600C4
:10032000FD17F5FBB717024098439316E70063C328
:10033000060001A0D843B706C4DFFD16D8C3D843D2
:10034000D8C3D84313670740D8C3D843758FD8C3E1
:10035000D843B7062920558FD8C3D857BD76758F97
:10036000D8D7D857C166938616F1558FD8D79843FA
:10037000B7060004558F98C3B717024098439316E9
:100380004700E3DD06FE9843B7060010558F98C37B
:10039000B7170240984393162700E3DD06FE984303
:1003A000B7060001558F98C3B717024098439316BC
:1003B0006700E3DD06FED843719BD8C3D8431367BB
:1003C0002700D8C3371702405C43A18BF5DF82803A
:1003D0007971B705000822D47D462A8493850528C3
:1003E0000A8506D697000000E780607379468A8503
:1003F000094597000000E780E073A2850945970052
:100400000000E780E001B705000805469385052B4D
:10041000094597000000E780E07101A079714ECE98
:10042000AE89B705000809469385052A22D426D24D
:100430004AD052CC56CA06D62A8971449700000089
:10044000E780406F3D4AA54AF154B3178A00B3F7DD
:100450003701B3D7870093F7F70F63ECFA0293875E
:10046000070393F7F70F05469305F1004A857114CA
:10047000A307F10097000000E780C06BE31794FC2E
:10048000B250225492540259F249624AD24A45610A
:10049000828093877703F1B7B70700D223800700E4
:1004A000A38507001205B71700D23E9563E3A700A6
:1004B000828023A00700C107D5BFF327503093F7F0
:1004C00007FC93E73700739057308280B705000828
:1004D000411115469385452A054506C6970000003B
:1004E000E7804065054597000000E780A0EE4111D8
:1004F0009347F5FF22C406C6139747012A8409E7EC
:1005000097000000E780C0FCB705000815469385FA
:10051000C52A054597000000E780C0612285970045
:100520000000E78020EB411106C697000000E7803D
:10053000A0D81305700597000000E78020F697000B
:100540000000E780C0F7B2404101170300006700D8
:10055000C3CF828000000000000000000000000007
:10056000000000000000000000000000000000008B
:10057000000000000000000000000000000000007B
:100580005D7106C012C216C41AC61EC82ACA2ECC75
:1005900032CE36D03AD23ED442D646D872DA76DC63
:1005A0007ADEFEC0F322103496C0F322003096C2E9
:1005B000F322407C96C4732520348A85970000007E
:1005C000E78020F386427390123496427390023093
:1005D000A6427390427C82401242A2423243C243FE
:1005E0005245E245724682561257A2573258C258B7
:1005F000525EE25E725F864F6161730020300000E0
:10060000000000005D7106C012C216C41AC61EC8E2
:100610002ACA2ECC32CE36D03AD23ED442D646D892
:1006200072DA76DC7ADEFEC073D0E87E7350F97E33
:1006300073D0B97EF390D07E73700430B64273905D
:10064000427CA642739012349642739022348240C8
:100650001242A2423243C2435245E245724682569A
:100660001257A2573258C258525EE25E725F864FEE
:10067000616173002030AA82B68E214363C46E008C
:100680009102E11E8A0E3D433313D3011343F3FF5E
:10069000AE83B3E3C300B393D30103AE0200337E52
:1006A0006E00336E7E0023A0C201828033F3C5004A
:1006B000B3436600C203336373002328650082805E
:1006C0004CC982804CC582800C458280B7120240A2
:1006D00003A3C2013363A30023AE62008280B7127A
:1006E000024003A382013363A30023AC6200828033
:1006F000711106C0414597000000E78060FDB71208
:1007000000401303B00623A462021303703E23A625
:10071000620223A80200054323A062008240110167
:100720008280B712004003A5020119C123A802006C
:100730008280711106C0214597000000E78060FAB1
:1007400037150140130505C081450D4681460D470B
:1007500097000000E78060F28506E39BE6FE82409A
:1007600011018280970200189382C28903850200DA
:100770008280711106C037150140130505C097022C
:1007800000189382228883850200FD1563D305003B
:100790009D452380B2001D4697000000E78040F190
:1007A00003850200824011018280711106C021453B
:1007B00097000000E780E0F237150140130505C0FF
:1007C0008D450146A146414797000000E780E0EAD9
:1007D0008506E39BE6FE824011018280711106C00E
:1007E000970200189382428283A20200AA923715D0
:1007F0000140130505C083C50200A20537060100AC
:10080000130606F097000000E78080EA824011019D
:10081000828097F2FF179382227F83A20200AA921E
:100820002380B2008280711106C01145970000003C
:10083000E78020EB371501401305058081451146FF
:100840009546254797000000E78020E38506E39B57
:10085000E6FE824011018280711106C07D5E970E16
:100860000018938E2E8E03A30E009303F3FF23A094
:100870007E006397030423A06E0037150140130523
:10088000058097000000E78060E49581BD898DC9EF
:1008900085813335B0003303A00085813335B00046
:1008A0002A9385813335B0002A9397000000E780B2
:1008B000A0EB0A05336EA3001303002023A06E00F3
:1008C0007285824011018280970200189382C2874C
:1008D000239002008280970200189382E28603D35D
:1008E0000200A5430503137EF30063D8C303190375
:1008F000135E4300137EFE0063D1C303130303069C
:10090000135E8300137EFE0063D9C30113030360EB
:10091000135EC30063D3C30101432390620082804E
:10092000970200189382428203D5020082809702C8
:1009300000189382828103A302007D1323A062002A
:10094000635903061303F00523A0620097F2FF1713
:100950009382826B03A30200210323A0620097F21B
:10096000FF179382C27E03A302007D1323A06200BF
:1009700097F3FF179383E37D03AE0300611E23A06B
:10098000C301635803021303600223A0620097F2BD
:10099000FF179382626703A3020097F3FF17938305
:1009A000437B03AE0300729323A06200014E23A099
:1009B000C301828097000000E780C0D39700000049
:1009C000E78060D797000000E78060DE97000000B6
:1009D000E780A0E5010097000000E78020E8BD4225
:1009E0006300550297000000E780E0D365D59700CB
:1009F0000000E78040D897000000E78060DED9BFA4
:100A000097000000E78080E5B942E30555FC9700B8
:100A10000000E78040D16DD597000000E78060F1CD
:100A200097000000E78020D597000000E78040DBBA
:100A3000C1BFAA8581460146014517030000670032
:100A40008314411122C406C6970700009387671CD0
:100A50002A8491C7814597000000E780801B970793
:100A600000009387A72B88431C5591C3829722854A
:100A700097000000E78000964111970700009387D8
:100A8000272A22C417040000130484291D8C26C2BF
:100A900006C60984BE8411E4B24022449244410156
:100AA00082807D1493172400A6979C438297E5B714
:100AB0004111970700009387A72622C4170400005E
:100AC000130404261D8C26C24AC006C6098481442C
:100AD0003E89639684029707000093876724170472
:100AE00000001304E4231D8C098481443E89639F24
:100AF0008400B2402244924402494101828093978B
:100B00002400CA979C4385048297E1B793972400F9
:100B1000CA979C4385048297D9BF2A8309CA8383D5
:100B20000500230073007D16050385056DFA82809C
:100B300097F7FF1793878768B2862E86AA85884322
:100B40001703000067008300411122C42A842E8508
:100B5000B285368697F7FF1723AE076E06C6970055
:100B60000000E7808017FD576319F50097F7FF171E
:100B70009387476E9C4391C31CC0B24022444101FD
:100B8000828097F7FF179387E7639C432A8E8DE750
:100B900017F7FF171307476397F7FF1723A4E762B9
:100BA00017F5FFF713050546BA8719C51C4117F558
:100BB000FF17232FF568BA87D8437D487D556347D3
:100BC000E804630E0E0203A8870863010804931863
:100BD0002700C29823A0C800032308100546331637
:100BE000E6003363C3002320681023A0D808894699
:100BF0006317DE0083264810558E2322C810930603
:100C000017000A07D4C3BA978CC70145828079714F
:100C100052CC56CA5AC85EC606D622D426D24AD06C
:100C20004ECE62C42A8B2E8A97FAFF17938A8A596E
:100C3000854B03A40A0011C8444083298408138902
:100C4000F4FF8A04A294635E0900B25022549254C5
:100C50000259F249624AD24A424BB24B224C456198
:100C60008280630E0A00639509007D19F114E1BFCB
:100C700093172900CE9783A70708E39847FF5840AA
:100C8000DC407D176318270323222401F9DF032C9E
:100C900044006388090083A6091033972B01F98E5D
:100CA00089EE8297584083A70A00E31487F9E30E80
:100CB000F4FA41B723A20400D1BF93162900CE96BF
:100CC0008C4283A64910758F01E75A858297D9BF58
:100CD0002E858297C1BF411106C622C481460147B5
:100CE000814793080004730000002A84635A0500BA
:100CF0003304804097000000E780600100C17D540C
:100D00002285B24022444101828097F7FF179387E2
:060D1000E74A88438280DF
:040D1800580100205E
:100D1C000700000008000020000000000000000098
:100D2C000080808080808000804040404040408037
:100D3C00C0202020202020C0609090909090906047
:100D4C00304848484848483018A42424A4A4A4187F
:100D5C008C5212925252528CC62909C9292929C681
:100D6C00639484E494949463314A42724A4A4A31BB
:100D7C0018A5A139A5A5A5188C52509C5252528C7D
:100D8C00C62928CE292929C6E31414E7141414E320
:100D9C00710A0A730A0A0A71380505B9050505387E
:100DAC009C8282DC8282829C4EC141EE4141414E4A
:100DBC002760A0F720202027133050FB10101013B1
:100DCC000918287D08080809048C943E040404843E
:100DDC0082464A9F020202C2C123254F810101E1D2
:100DEC00E0111227408000F070880913204080F831
:100DFC00384404091020407C1C220204081020BE38
:100E0C008E918182848890DF47C84041424448EFEC
:100E1C002364202021222477113210101011123B50
:100E2C00081908080808091D040C04040404040E1D
:100E3C000206020202020207010301010101010381
:100E4C000001000000000001000000000000000094
:100E5C0000020000FFFF5F00000026000000000001
:100E6C00000007000000000000000000000000006F
:100E7C000000000000000000000000000000000066
:100E8C000000000000000000000000000000000056
:100E9C000000000000000000000000000000000046
:100EAC000000000000000000000000000000000036
:100EBC000000000000000000000000000000000026
:100ECC00000000000000000058010020000000009D
:040000050800015C92
:00000001FF
