:020000040800F2
:10000000B1AA010000000000000000000000000094
:1000100000000000000000000000000000000000E0
:1000200000000000000000000000000000000000D0
:1000300000000000000000000000000000000000C0
:1000400000000000000000000000000000000000B0
:1000500000000000000000000000000000000000A0
:100060000000000000000000000000000000000090
:100070000000000000000000000000000000000080
:100080000000000000000000000000000000000070
:100090000000000000000000000000000000000060
:1000A0000000000000000000000000000000000050
:1000B0000000000000000000000000000000000040
:1000C0000000000000000000000000000000000030
:1000D0000000000000000000000000000000000020
:1000E0000000000000000000000000000000000010
:1000F0000000000000000000000000000000000000
:1001000000000000000000000000000000000000EF
:1001100000000000000000000000000000000000DF
:1001200000000000000000000000000000000000CF
:1001300000000000000000000000000000000000BF
:1001400000000000000000000000000000000000AF
:100150000000000000000000000000007370043088
:10016000170500001305C5FF8545F605637BB5003F
:1001700089816378B500170500001305C5002E9529
:1001800002859302002073A0027D970200009382F3
:1001900062E773907230971200009382E2E67390E8
:1001A000C27E73E0C07E971200009382A2DD73903E
:1001B0005230970100189381E16C178100181301E8
:1001C00061E4171500001305654A9705001893852B
:1001D00065E317060018130666EB63FAC500832271
:1001E000050023A0550011059105E3EAC5FE17059A
:1001F00000181305A5E9970500189385A5F2637704
:10020000B500232005001105E36DB5FE73F0023241
:10021000171500001305451B97100000E7806016B6
:1002200097100000E780C01D97100000E780E0AA4B
:100230000145814597000000E780000C171300007E
:100240006700231501A073E00232828073F002324E
:0402500082800000A8
:100280000A50726F6772616D2068617320657869CA
:10029000746564207769746820636F64653A000050
:1002A000307800006E6D690A0000000074726170A1
:1002B0000A00000001000000040000000700000028
:1002C0000E00000002000000050000000800000011
:1002D000000000000300000006000000090000000C
:1002E0000F0000000A0000000B0000000C000000DE
:1002F0000D0000001971B70500081306000493856E
:10030000452B0A8586DEA2DCA6DACAD8CED6D2D4A0
:10031000DAD0DECEE2CCE6CAEAC8EEC6D6D2971074
:100320000000E780801497100000E78020DC971021
:100330000000E78000E297100000E78000E99710D6
:100340000000E78040F0054597100000E780C09B63
:100350000145116C97100000E780A0BF814401495E
:10036000014A01448149014BB94C054DA94B914DBE
:10037000130CFCE7050B97100000E78040DA7DD9ED
:1003800097100000E780E0E097100000E78000E7AA
:1003900097100000E78040EE6349050E9C000A05B7
:1003A0003E95832A05FCB5476391FA02628793065E
:1003B000400601468145268597100000E78020D73A
:1003C00097100000E780E0B875B7BD476392FA0266
:1003D000014422858145050497100000E78060E50F
:1003E000E319B4FF81440149014A0144814959B7E5
:1003F00063929A078D47631CF90233C4790305455C
:100400008149A28597100000E780A0E2814501455F
:1004100097100000E780E0E1B3044401CE94A68584
:100420000D457D1997100000E780A0E0A1B789472E
:10043000E314F9FE334A740309450144D285971049
:100440000000E78000DF8145054597100000E78048
:1004500040DED9B7631AA90533047A030545A2859E
:1004600097100000E780E0DCD6850945B3848A0058
:1004700097100000E780E0DBCE94A6850D450509C6
:1004800097100000E780E0DA568A93558B401945B3
:1004900097100000E780E0D9DA851D45971000002D
:1004A000E78020D9014BF9B58947E31FF9FAB30971
:1004B00074030145CE8597100000E78080D769BF9F
:1004C00093F7050193F8F50099C3B3E8C800814795
:1004D000054EBD4E130F8002930F80042143331647
:1004E000FE00758E1DC213972700832205003398E6
:1004F000EE001348F8FF337858003397E80033676D
:1005000007016399E50550C918C18507E39967FCA0
:10051000054EBD4E130F8002930F800441433316E6
:10052000FE00758E05C6139727000117832245002C
:100530003398EE001348F8FF337858003397E800FB
:1005400033670701639CE50150C958C18507E398EB
:1005500067FC8280E39AF5FB10C97DB7E397F5FF4E
:1005600010C9E5B7B7170240135765003E9714430B
:100570008547B397A700D58F1CC38280B717024069
:10058000135765003E9714438547B397A700D58F4F
:100590001CC38280B7170240135765003E9714436F
:1005A0008547B397A70093C7F7FFF58F1CC38280D9
:1005B0004111B717004006C6138707C0630EE50850
:1005C0006367A70237070040930607406304D50618
:1005D000938707806309F5066312E50A1305004057
:1005E00097000000E780C0F91305004035A8138785
:1005F0000740630CE50637370140130707C0630D5A
:10060000E500631DF5061305404097000000E780F4
:1006100020F71305404009A81305B03097000000EB
:10062000E78000F61305B030B24041011703000027
:10063000670083F61305104097000000E78040F440
:1006400013051040D5B71305204097000000E78040
:1006500020F313052040C9BF130530409700000068
:10066000E78000F213053040C1B7130550409700F2
:100670000000E780E0F0130550407DB7B240410133
:100680008280C167FD1723200500231205001CC5C9
:100690002316050023070500828083D7050003D7B2
:1006A00045009376F5BF1CD5B7370140938707C047
:1006B000418B630AF500FD779387F73FE98F370693
:1006C00000406390C7061C4193F7F7F81CC183D71D
:1006D0002500104193F70706D18F1CC11C415D8F87
:1006E00018C19C455CD5B71700406387F6021C41D2
:1006F00093F7F7CF1CC183D7C500184193F7073094
:10070000D98F1CC1B7370140138707C06316E500B6
:1007100003C7E50023A8E7C25C4993E717005CC95B
:1007200082801C41BD9B55BF1C4193E717001CC133
:1007300082801C4193E707081CC1828023100500BA
:1007400023110500231205002313050023140500BF
:100750002315050082808547638EF50881C9894786
:100760006389F5128D476387F51C82801C51F99BC4
:100770001CD1185183570600D98F1CD11C51F59BF1
:100780001CD1185183574600D98F1CD1B73701406F
:10079000138707C0631CE50418516D9B18D11451D1
:1007A00003572600558F18D118515D9B18D114514D
:1007B00003576600558F18D103A747C01377F7EF8B
:1007C00023A2E7C083A647C003578600558F23A204
:1007D000E7C003A747C01377F7DF23A2E7C083A6CC
:1007E00047C00357A600558F23A2E7C01C4DF19BBD
:1007F0001CCD82801C51BD9B1CD183570600185113
:100800009207D98F1CD11C5193F7F7FD1CD1835748
:10081000460018519207D98F1CD1B7370140138772
:1008200007C06314E50618511377F7FB18D1035777
:10083000260014511207558F18D118511377F7F766
:1008400018D10357660014511207558F18D103A70A
:1008500047C01377F7BF23A2E7C00357860083A6DC
:1008600047C00A07558F23A2E7C003A747C0FD76FC
:100870009386F67F758F23A2E7C00357A60083A651
:1008800047C00A07558F23A2E7C01C4D93F7F7CF47
:1008900085B71C5193F7F7EF1CD183570600185109
:1008A000A207D98F1CD11C5193F7F7DF1CD18357B6
:1008B00046001851A207D98F1CD1B73701401387C2
:1008C00007C06315E50618511377F7BF18D1035712
:1008D000260014512207558F18D11851FD769385A3
:1008E000F67F6D8F18D1035766000C51FD16220755
:1008F0004D8F18D103A747C0F98E23A2D7C0035745
:10090000860083A647C01207558F23A2E7C003A71E
:1009100047C0F976FD16758F23A2E7C00357A600DE
:1009200083A647C01207558F23A2E7C05C4DF19BF9
:100930005CCD82801C517D777D17F98F1CD1835748
:1009400006001851B207D98F1CD11C5179777D1739
:10095000F98F1CD1835746001851B207D98F1CD18B
:10096000B7370140138707C06311E50203A747C0EB
:10097000F176FD16758F23A2E7C00357860083A684
:1009800047C01A07558F23A2E7C05C4D93F7F7CFF6
:1009900045B785476382F50281C989476386F502B9
:1009A0008D47638BF50282801C4D93F7F7F81CCDC1
:1009B0001C4D5D8E10CD82801C4D65777D17F98FA3
:1009C0001CCD1C4D2206F5B75C4D93F7F7F85CCDB6
:1009D0005C4D5D8E50CD82805C4D65777D17F98FC3
:1009E0005CCD5C4D2206F5B78547638CF50081C967
:1009F0008947638AF5008D476389F500828050D965
:100A0000828010DD828050DD828030C18280854707
:100A10006381F50281C989476386F5028D47638A40
:100A2000F50282801C4DDD9B1CCD1C4D5D8E10CDD2
:100A300082801C4D7D771307F77FF98F1CCD1C4DED
:100A40002206EDB75C4DDD9B5CCD5C4D5D8E50CDDF
:100A500082805C4D7D771307F77FF98F5CCD5C4D0D
:100A60002206EDB7B71702409843B706FFE0B1067C
:100A70001367170098C3D843758FD8C39843B70638
:100A8000F7FEFD16758F98C39843B706FCFFFD1659
:100A9000758F98C3D843B70601DFFD16758FD8C38D
:100AA00023A607029843B706F7EAFD16758F98C389
:100AB0003707FF0098C794434167D98E94C39307C3
:100AC000F7FF3717024014431396E600634406000D
:100AD000FD17F5FBB717024098439316E70063C371
:100AE000060001A0D843B706C4DFFD16D8C3D8431B
:100AF000D8C3D84313670740D8C3D843758FD8C32A
:100B0000D843B7062920558FD8C3D857BD76758FDF
:100B1000D8D7D857C166938616F1558FD8D7984342
:100B2000B7060004558F98C3B71702409843931631
:100B30004700E3DD06FE9843B7060010558F98C3C3
:100B4000B7170240984393162700E3DD06FE98434B
:100B5000B7060001558F98C3B71702409843931604
:100B60006700E3DD06FED843719BD8C3D843136703
:100B70002700D8C3371702405C43A18BF5DF828082
:100B80007971B705000822D47D462A84938505280B
:100B90000A8506D697100000E780208D79468A8561
:100BA000094597100000E780A08DA28509459700B0
:100BB0000000E780E001B705000805469385052B96
:100BC000094597100000E780A08B01A079714ECEF7
:100BD000AE89B705000809469385052A22D426D296
:100BE0004AD052CC56CA06D62A89714497100000C2
:100BF000E78000893D4AA54AF154B3178A00B3F74C
:100C00003701B3D7870093F7F70F63ECFA029387A6
:100C1000070393F7F70F05469305F1004A85711412
:100C2000A307F10097100000E7808085E31794FC8C
:100C3000B250225492540259F249624AD24A456152
:100C4000828093877703F1B7B70700D2238007002C
:100C5000A38507001205B71700D23E9563E3A700EE
:100C6000828023A00700C107D5BFF327503093F738
:100C700007FC93E73700739057308280B705000870
:100C8000411115469385452A054506C69700000083
:100C9000E780007F054597000000E780A0EE411146
:100CA0009347F5FF22C406C6139747012A8409E734
:100CB00097000000E780C0FCB70500081546938543
:100CC000C52A054597000000E780807B22859700B4
:100CD0000000E78020EB411106C697000000E78086
:100CE000A0D81305700597000000E78020F6970054
:100CF0000000E780C0F7B240410117F3FFFF670033
:100D0000C3548280397122DC2A841305206006DEF8
:100D10004ED626DA4AD897000000E780E084130513
:100D200000609379140097000000E780E083638DF2
:100D300009003715014085460D46E145130505803C
:100D400097F0FFFFE780007813792400630D090016
:100D50003715014089460D46E1451305058097F09A
:100D6000FFFFE78020769374440081CC3715014063
:100D700091460D46E1451305058097F0FFFFE7809A
:100D80006074218801CC37150140A1460D46E1452C
:100D90001305058097F0FFFFE780C0721305007010
:100DA00097F0FFFFE780407C370500409700000088
:100DB000E7804080080897000000E780C08C930718
:100DC000B0063EC891679387F7E70C0837050040E7
:100DD0003ECC231A0100231E0100230F01009700BF
:100DE0000000E780C08B480097000000E780409536
:100DF00085473EC202C402C6638A0900500081458D
:100E00003705004097000000E7802095630A09003D
:100E1000500085453705004097000000E780E093CB
:100E200089C8500089453705004097000000E780D9
:100E3000C09209C850008D4537050040970000005A
:100E4000E780A091638D09020D661306F6ED8145DA
:100E50003705004097000000E78040B91306000600
:100E600081453705004097000000E780C0B2014689
:100E700081453705004097000000E78080B9630D89
:100E800009020D661306F6ED85453705004097000B
:100E90000000E780A0B51306000685453705004031
:100EA00097000000E78020AF0146854537050040E8
:100EB00097000000E780E0B585CC0D661306F6EDDF
:100EC00089453705004097000000E78020B21306EF
:100ED000000689453705004097000000E780A0AB79
:100EE000014689453705004097000000E78060B261
:100EF00005CC0D661306F6ED8D45370500409700CD
:100F00000000E780A0AE130600068D4537050040BF
:100F100097000000E78020A801468D453705004076
:100F200097000000E780E0AE370500409700000022
:100F3000E78060803705004097F0FFFFE780007F83
:100F4000F2506254D2544259B259216182802A86A9
:100F500081453705004017030000670023A9000002
:100F60000000000000000000000000000000000081
:100F70000000000000000000000000000000000071
:100F80005D7106C012C216C41AC61EC82ACA2ECC6B
:100F900032CE36D03AD23ED442D646D872DA76DC59
:100FA0007ADEFEC0F322103496C0F322003096C2DF
:100FB000F322407C96C4732520348A859700000074
:100FC000E78020CE864273901234964273900230AE
:100FD000A6427390427C82401242A2423243C243F4
:100FE0005245E245724682561257A2573258C258AD
:100FF000525EE25E725F864F6161730020300000D6
:10100000000000005D7106C012C216C41AC61EC8D8
:101010002ACA2ECC32CE36D03AD23ED442D646D888
:1010200072DA76DC7ADEFEC073D0E87E7350F97E29
:1010300073D0B97EF390D07E73700430B642739053
:10104000427CA642739012349642739022348240BE
:101050001242A2423243C2435245E2457246825690
:101060001257A2573258C258525EE25E725F864FE4
:10107000616173002030AA82B68E214363C46E0082
:101080009102E11E8A0E3D433313D3011343F3FF54
:10109000AE83B3E3C300B393D30103AE0200337E48
:1010A0006E00336E7E0023A0C2018280F18D2D8EF2
:1010B0004206D18D0CC982804CC982804CC5828089
:1010C0000C458280B712024003A3C2013363A30020
:1010D00023AE62008280B712024003A38201336311
:1010E000A30023AC62008280711106C041459700C5
:1010F0000000E78060FDB71200401303B00623A490
:1011000062021303703E23A6620223A80200054375
:1011100023A06200824011018280B712004003A523
:10112000020119C123A802008280B382B640638EF7
:1011300002003303C740B303B540338E6302B34E9E
:101140005E02338FCE007A8511A0328582807111C4
:1011500006C0214597000000E78020F837150140C0
:10116000130505C081450D4681460D4797000000D7
:10117000E780A0F08506E39BE6FE824011018280B5
:1011800097F2FF17938202E80385020082807111B3
:1011900006C037150140130505C097F2FF1793826B
:1011A00062E683850200FD1563D305009D4523801B
:1011B000B2001D4697000000E78080EF0385020023
:1011C000824011018280711106C021459700000004
:1011D000E780A0F037150140130505C081450D4695
:1011E000A146414797000000E78020E98506E39B80
:1011F000E6FE824011018280711106C097F2FF174E
:10120000938282E083A20200AA923715014013055F
:1012100005C083C50200A20537060100130606F0CB
:1012200097000000E780C0E882401101828097F2B9
:10123000FF17938262DD83A20200AA922380B2008C
:101240008280711106C0114597000000E780E0E838
:101250003715014013050580814511469546254700
:1012600097000000E78060E18506E39BE6FE824090
:1012700011018280711106C07D5E97FEFF17938E6B
:101280007ED903A30E009303F3FF23A07E00639790
:10129000030423A06E003715014013050580970055
:1012A0000000E78020E29581BD898DC985813335B5
:1012B000B0003303A00085813335B0002A938581C7
:1012C0003335B0002A9397000000E780A0EB0A05B1
:1012D000336EA3001303002023A06E0072858240AA
:1012E0001101828097F2FF17938212D3239002009C
:1012F000828097F2FF17938232D203D30200A54374
:101300000503137EF30063D8C3031903135E430080
:10131000137EFE0063D1C30313030306135E830031
:10132000137EFE0063D9C30113030360135EC30081
:1013300063D3C301014323906200828097F2FF17B9
:10134000938292CD03D50200828097F2FF17938299
:10135000D2CC03A302007D1323A0620063500302DA
:101360001303F00823A0620097F2FF179382C2C90B
:1013700003A302001343130023A062008280AA8506
:10138000814601460145170300006700831441119F
:1013900022C406C6970700009387671C2A8491C75A
:1013A000814597000000E780801B97070000938726
:1013B000A72B88431C5591C38297228597F0FFFF86
:1013C000E780407C4111970700009387272A22C4B9
:1013D00017040000130484291D8C26C206C6098444
:1013E000BE8411E4B24022449244410182807D14C3
:1013F00093172400A6979C438297E5B7411197075E
:1014000000009387A72622C41704000013040426B3
:101410001D8C26C24AC006C6098481443E89639653
:1014200084029707000093876724170400001304C1
:10143000E4231D8C098481443E89639F8400B2406B
:101440002244924402494101828093972400CA9722
:101450009C4385048297E1B793972400CA979C43E5
:1014600085048297D9BF2A8309CA83830500230094
:1014700073007D16050385056DFA828097F7FF17C7
:10148000938747C0B2862E86AA858843170300003B
:1014900067008300411122C42A842E85B2853686D6
:1014A00097F7FF1723AC07C606C697000000E78032
:1014B0008017FD576319F50097F7FF17938707C645
:1014C0009C4391C31CC0B24022444101828097F7E3
:1014D000FF179387A7BB9C432A8E8DE717F7FF174B
:1014E000130707BB97F7FF1723A2E7BA17F5FFF714
:1014F000130545B1BA8719C51C4117F5FF17232DF0
:10150000F5C0BA87D8437D487D556347E804630E2C
:101510000E0203A887086301080493182700C298E5
:1015200023A0C8000323081005463316E6003363E2
:10153000C3002320681023A0D80889466317DE0063
:1015400083264810558E2322C810930617000A07D9
:10155000D4C3BA978CC701458280797152CC56CAE0
:101560005AC85EC606D622D426D24AD04ECE62C40F
:101570002A8B2E8A97FAFF17938A4AB1854B03A4C8
:101580000A0011C84440832984081389F4FF8A049F
:10159000A294635E0900B250225492540259F24957
:1015A000624AD24A424BB24B224C45618280630E62
:1015B0000A00639509007D19F114E1BF9317290012
:1015C000CE9783A70708E39847FF5840DC407D1774
:1015D0006318270323222401F9DF032C44006388C6
:1015E000090083A6091033972B01F98E89EE8297A3
:1015F000584083A70A00E31487F9E30EF4FA41B7D1
:1016000023A20400D1BF93162900CE968C4283A654
:101610004910758F01E75A858297D9BF2E85829729
:10162000C1BF411106C622C48146014781479308C4
:101630000004730000002A84635A050033048040CC
:1016400097000000E780600100C17D542285B24010
:1016500022444101828097F7FF179387A7A288430E
:02166000828086
:041664002000002042
:101668000700000008000020000000000000000043
:10167800AA00020000FFFF8F000000070000000022
:101688000000000000000000000000000000000052
:101698000000000000000000000000000000000042
:1016A8000000000000000000000000000000000032
:1016B8000000000000000000000000000000000022
:1016C8000000000000000000000000000000000012
:1016D8000000000000000000000000000000000002
:0816E8002000002000000000BA
:040000050800015C92
:00000001FF
